{
  "contractName": "BC4IOT",
  "abi": [
    {
      "constant": true,
      "inputs": [
        {
          "name": "",
          "type": "uint8"
        }
      ],
      "name": "deviceID",
      "outputs": [
        {
          "name": "",
          "type": "address"
        }
      ],
      "payable": false,
      "stateMutability": "view",
      "type": "function"
    },
    {
      "constant": true,
      "inputs": [
        {
          "name": "",
          "type": "address"
        }
      ],
      "name": "ids",
      "outputs": [
        {
          "name": "",
          "type": "bytes"
        }
      ],
      "payable": false,
      "stateMutability": "view",
      "type": "function"
    },
    {
      "constant": true,
      "inputs": [
        {
          "name": "",
          "type": "uint8"
        }
      ],
      "name": "systemID",
      "outputs": [
        {
          "name": "",
          "type": "address"
        }
      ],
      "payable": false,
      "stateMutability": "view",
      "type": "function"
    },
    {
      "constant": false,
      "inputs": [
        {
          "name": "_SID",
          "type": "uint8"
        }
      ],
      "name": "addSID",
      "outputs": [],
      "payable": false,
      "stateMutability": "nonpayable",
      "type": "function"
    },
    {
      "constant": true,
      "inputs": [
        {
          "name": "v1",
          "type": "uint8"
        }
      ],
      "name": "BC4IOT_bytesConvert",
      "outputs": [
        {
          "name": "",
          "type": "bytes"
        }
      ],
      "payable": false,
      "stateMutability": "pure",
      "type": "function"
    },
    {
      "constant": false,
      "inputs": [
        {
          "name": "_EID",
          "type": "uint8"
        },
        {
          "name": "_SID",
          "type": "uint8"
        },
        {
          "name": "hash",
          "type": "uint256"
        },
        {
          "name": "r",
          "type": "uint256"
        },
        {
          "name": "s",
          "type": "uint256"
        }
      ],
      "name": "addEID",
      "outputs": [],
      "payable": false,
      "stateMutability": "nonpayable",
      "type": "function"
    },
    {
      "constant": false,
      "inputs": [
        {
          "name": "_EID",
          "type": "uint8"
        },
        {
          "name": "addrs",
          "type": "address"
        }
      ],
      "name": "BC4IOT_regEID",
      "outputs": [],
      "payable": false,
      "stateMutability": "nonpayable",
      "type": "function"
    },
    {
      "constant": true,
      "inputs": [
        {
          "name": "v1",
          "type": "uint8"
        },
        {
          "name": "v2",
          "type": "uint8"
        }
      ],
      "name": "BC4IOT_bytesConvert1",
      "outputs": [
        {
          "name": "",
          "type": "bytes"
        }
      ],
      "payable": false,
      "stateMutability": "pure",
      "type": "function"
    },
    {
      "constant": true,
      "inputs": [
        {
          "name": "hash",
          "type": "bytes32"
        },
        {
          "name": "r",
          "type": "bytes32"
        },
        {
          "name": "s",
          "type": "bytes32"
        }
      ],
      "name": "token_Verify",
      "outputs": [
        {
          "name": "",
          "type": "address"
        }
      ],
      "payable": false,
      "stateMutability": "pure",
      "type": "function"
    },
    {
      "constant": true,
      "inputs": [
        {
          "name": "hash",
          "type": "bytes32"
        },
        {
          "name": "r",
          "type": "bytes32"
        },
        {
          "name": "s",
          "type": "bytes32"
        }
      ],
      "name": "token_Verify1",
      "outputs": [
        {
          "name": "",
          "type": "address"
        }
      ],
      "payable": false,
      "stateMutability": "pure",
      "type": "function"
    },
    {
      "constant": false,
      "inputs": [
        {
          "name": "EID",
          "type": "uint8"
        },
        {
          "name": "SID",
          "type": "uint8"
        },
        {
          "name": "hash1",
          "type": "uint256"
        },
        {
          "name": "_r",
          "type": "uint256"
        },
        {
          "name": "_s",
          "type": "uint256"
        }
      ],
      "name": "deviceAuth",
      "outputs": [],
      "payable": false,
      "stateMutability": "nonpayable",
      "type": "function"
    },
    {
      "constant": false,
      "inputs": [
        {
          "name": "EID",
          "type": "uint8"
        },
        {
          "name": "SID",
          "type": "uint8"
        },
        {
          "name": "addrs",
          "type": "address"
        }
      ],
      "name": "BC4IOT_addMapping",
      "outputs": [],
      "payable": false,
      "stateMutability": "nonpayable",
      "type": "function"
    },
    {
      "constant": true,
      "inputs": [],
      "name": "test",
      "outputs": [
        {
          "name": "",
          "type": "uint8"
        }
      ],
      "payable": false,
      "stateMutability": "view",
      "type": "function"
    }
  ],
  "bytecode": "0x608060405234801561001057600080fd5b506116a8806100206000396000f3fe608060405234801561001057600080fd5b50600436106100cf5760003560e01c8063612d65b31161008c578063adead32811610066578063adead3281461057d578063b78b30b1146105ee578063d2a75eac1461063f578063f8a8fd6d14610670576100cf565b8063612d65b31461041d5780636553468f14610479578063ab8c425a146104fb576100cf565b806301a8dd91146100d4578063074f57c21461014557806308cd911f146101fc5780631847c06b1461025857806320106a4214610315578063392b814e14610373575b600080fd5b610103600480360360208110156100ea57600080fd5b81019080803560ff169060200190929190505050610694565b604051808273ffffffffffffffffffffffffffffffffffffffff1673ffffffffffffffffffffffffffffffffffffffff16815260200191505060405180910390f35b6101816004803603604081101561015b57600080fd5b81019080803560ff169060200190929190803560ff1690602001909291905050506106c7565b6040518080602001828103825283818151815260200191508051906020019080838360005b838110156101c15780820151818401526020810190506101a6565b50505050905090810190601f1680156101ee5780820380516001836020036101000a031916815260200191505b509250505060405180910390f35b610256600480360360a081101561021257600080fd5b81019080803560ff169060200190929190803560ff16906020019092919080359060200190929190803590602001909291908035906020019092919050505061079b565b005b61029a6004803603602081101561026e57600080fd5b81019080803573ffffffffffffffffffffffffffffffffffffffff169060200190929190505050610b14565b6040518080602001828103825283818151815260200191508051906020019080838360005b838110156102da5780820151818401526020810190506102bf565b50505050905090810190601f1680156103075780820380516001836020036101000a031916815260200191505b509250505060405180910390f35b6103716004803603606081101561032b57600080fd5b81019080803560ff169060200190929190803560ff169060200190929190803573ffffffffffffffffffffffffffffffffffffffff169060200190929190505050610bc4565b005b6103a26004803603602081101561038957600080fd5b81019080803560ff169060200190929190505050610c25565b6040518080602001828103825283818151815260200191508051906020019080838360005b838110156103e25780820151818401526020810190506103c7565b50505050905090810190601f16801561040f5780820380516001836020036101000a031916815260200191505b509250505060405180910390f35b610477600480360360a081101561043357600080fd5b81019080803560ff169060200190929190803560ff169060200190929190803590602001909291908035906020019092919080359060200190929190505050610cb3565b005b6104b96004803603606081101561048f57600080fd5b810190808035906020019092919080359060200190929190803590602001909291905050506110b3565b604051808273ffffffffffffffffffffffffffffffffffffffff1673ffffffffffffffffffffffffffffffffffffffff16815260200191505060405180910390f35b61053b6004803603606081101561051157600080fd5b810190808035906020019092919080359060200190929190803590602001909291905050506111a8565b604051808273ffffffffffffffffffffffffffffffffffffffff1673ffffffffffffffffffffffffffffffffffffffff16815260200191505060405180910390f35b6105ac6004803603602081101561059357600080fd5b81019080803560ff16906020019092919050505061129d565b604051808273ffffffffffffffffffffffffffffffffffffffff1673ffffffffffffffffffffffffffffffffffffffff16815260200191505060405180910390f35b61063d6004803603604081101561060457600080fd5b81019080803560ff169060200190929190803573ffffffffffffffffffffffffffffffffffffffff1690602001909291905050506112d0565b005b61066e6004803603602081101561065557600080fd5b81019080803560ff16906020019092919050505061132f565b005b61067861152d565b604051808260ff1660ff16815260200191505060405180910390f35b60026020528060005260406000206000915054906101000a900473ffffffffffffffffffffffffffffffffffffffff1681565b60608060026040519080825280601f01601f1916602001820160405280156106fe5781602001600182028038833980820191505090505b50905060008090508460f81b82828060010193508151811061071c57fe5b60200101907effffffffffffffffffffffffffffffffffffffffffffffffffffffffffffff1916908160001a9053508360f81b82828060010193508151811061076157fe5b60200101907effffffffffffffffffffffffffffffffffffffffffffffffffffffffffffff1916908160001a905350819250505092915050565b60008060003373ffffffffffffffffffffffffffffffffffffffff1673ffffffffffffffffffffffffffffffffffffffff16815260200190815260200160002080546001816001161561010002031660029004905014610863576040517f08c379a00000000000000000000000000000000000000000000000000000000081526004018080602001828103825260188152602001807f54686973204e6f646520416c726561647920457869737473000000000000000081525060200191505060405180910390fd5b600073ffffffffffffffffffffffffffffffffffffffff16600260008760ff1660ff16815260200190815260200160002060009054906101000a900473ffffffffffffffffffffffffffffffffffffffff1673ffffffffffffffffffffffffffffffffffffffff161461093e576040517f08c379a000000000000000000000000000000000000000000000000000000000815260040180806020018281038252601e8152602001807f546869732044657669636520616c72656164792052656769737465726564000081525060200191505060405180910390fd5b600160008560ff1660ff16815260200190815260200160002060009054906101000a900473ffffffffffffffffffffffffffffffffffffffff1673ffffffffffffffffffffffffffffffffffffffff166109a28460001b8460001b8460001b6111a8565b73ffffffffffffffffffffffffffffffffffffffff1614610aab57600160008560ff1660ff16815260200190815260200160002060009054906101000a900473ffffffffffffffffffffffffffffffffffffffff1673ffffffffffffffffffffffffffffffffffffffff16610a218460001b8460001b8460001b6110b3565b73ffffffffffffffffffffffffffffffffffffffff1614610aaa576040517f08c379a00000000000000000000000000000000000000000000000000000000081526004018080602001828103825260138152602001807f566572696669636174696f6e204661696c65640000000000000000000000000081525060200191505060405180910390fd5b5b33600260008760ff1660ff16815260200190815260200160002060006101000a81548173ffffffffffffffffffffffffffffffffffffffff021916908373ffffffffffffffffffffffffffffffffffffffff160217905550610b0d85336112d0565b5050505050565b60006020528060005260406000206000915090508054600181600116156101000203166002900480601f016020809104026020016040519081016040528092919081815260200182805460018160011615610100020316600290048015610bbc5780601f10610b9157610100808354040283529160200191610bbc565b820191906000526020600020905b815481529060010190602001808311610b9f57829003601f168201915b505050505081565b610bce82846106c7565b6000808373ffffffffffffffffffffffffffffffffffffffff1673ffffffffffffffffffffffffffffffffffffffff1681526020019081526020016000209080519060200190610c1f9291906115d7565b50505050565b60608060016040519080825280601f01601f191660200182016040528015610c5c5781602001600182028038833980820191505090505b50905060008090508360f81b828280600101935081518110610c7a57fe5b60200101907effffffffffffffffffffffffffffffffffffffffffffffffffffffffffffff1916908160001a9053508192505050919050565b60008060003373ffffffffffffffffffffffffffffffffffffffff1673ffffffffffffffffffffffffffffffffffffffff1681526020019081526020016000208054600181600116156101000203166002900490501415610d7c576040517f08c379a00000000000000000000000000000000000000000000000000000000081526004018080602001828103825260188152602001807f54686973204e6f646520446f6573204e6f74204578697374000000000000000081525060200191505060405180910390fd5b600073ffffffffffffffffffffffffffffffffffffffff16600160008660ff1660ff16815260200190815260200160002060009054906101000a900473ffffffffffffffffffffffffffffffffffffffff1673ffffffffffffffffffffffffffffffffffffffff161415610e58576040517f08c379a00000000000000000000000000000000000000000000000000000000081526004018080602001828103825260178152602001807f546869732053494420446f6573204e6f7420457869737400000000000000000081525060200191505060405180910390fd5b600073ffffffffffffffffffffffffffffffffffffffff16600260008760ff1660ff16815260200190815260200160002060009054906101000a900473ffffffffffffffffffffffffffffffffffffffff1673ffffffffffffffffffffffffffffffffffffffff161415610f34576040517f08c379a000000000000000000000000000000000000000000000000000000000815260040180806020018281038252601f8152602001807f546869732044657669636520446f6573204e6f7420526567697374657265640081525060200191505060405180910390fd5b600160008560ff1660ff16815260200190815260200160002060009054906101000a900473ffffffffffffffffffffffffffffffffffffffff1673ffffffffffffffffffffffffffffffffffffffff16610f988460001b8460001b8460001b6111a8565b73ffffffffffffffffffffffffffffffffffffffff16146110a157600160008560ff1660ff16815260200190815260200160002060009054906101000a900473ffffffffffffffffffffffffffffffffffffffff1673ffffffffffffffffffffffffffffffffffffffff166110178460001b8460001b8460001b6110b3565b73ffffffffffffffffffffffffffffffffffffffff16146110a0576040517f08c379a00000000000000000000000000000000000000000000000000000000081526004018080602001828103825260138152602001807f566572696669636174696f6e204661696c65640000000000000000000000000081525060200191505060405180910390fd5b5b6110ac858533610bc4565b5050505050565b600080601c905060008560405160200180807f19457468657265756d205369676e6564204d6573736167653a0a333200000000815250601c01828152602001915050604051602081830303815290604052805190602001209050601b8260ff16141580156111255750601c8260ff1614155b15611135576000925050506111a1565b60018183878760405160008152602001604052604051808581526020018460ff1660ff1681526020018381526020018281526020019450505050506020604051602081039080840390855afa158015611192573d6000803e3d6000fd5b50505060206040510351925050505b9392505050565b600080601b905060008560405160200180807f19457468657265756d205369676e6564204d6573736167653a0a333200000000815250601c01828152602001915050604051602081830303815290604052805190602001209050601b8260ff161415801561121a5750601c8260ff1614155b1561122a57600092505050611296565b60018183878760405160008152602001604052604051808581526020018460ff1660ff1681526020018381526020018281526020019450505050506020604051602081039080840390855afa158015611287573d6000803e3d6000fd5b50505060206040510351925050505b9392505050565b60016020528060005260406000206000915054906101000a900473ffffffffffffffffffffffffffffffffffffffff1681565b6112d982610c25565b6000808373ffffffffffffffffffffffffffffffffffffffff1673ffffffffffffffffffffffffffffffffffffffff168152602001908152602001600020908051906020019061132a9291906115d7565b505050565b60008060003373ffffffffffffffffffffffffffffffffffffffff1673ffffffffffffffffffffffffffffffffffffffff168152602001908152602001600020805460018160011615610100020316600290049050146113f7576040517f08c379a000000000000000000000000000000000000000000000000000000000815260040180806020018281038252601b8152602001807f466f67204e6f646520416c72656164792052656769737465726564000000000081525060200191505060405180910390fd5b600073ffffffffffffffffffffffffffffffffffffffff16600160008360ff1660ff16815260200190815260200160002060009054906101000a900473ffffffffffffffffffffffffffffffffffffffff1673ffffffffffffffffffffffffffffffffffffffff16146114d2576040517f08c379a000000000000000000000000000000000000000000000000000000000815260040180806020018281038252601b8152602001807f546869732053494420616c72656164792052656769737465726564000000000081525060200191505060405180910390fd5b33600160008360ff1660ff16815260200190815260200160002060006101000a81548173ffffffffffffffffffffffffffffffffffffffff021916908373ffffffffffffffffffffffffffffffffffffffff16021790555050565b60008060003373ffffffffffffffffffffffffffffffffffffffff1673ffffffffffffffffffffffffffffffffffffffff168152602001908152602001600020600081546001816001161561010002031660029004811061158a57fe5b8154600116156115a95790600052602060002090602091828204019190065b9054901a7f01000000000000000000000000000000000000000000000000000000000000000260f81c905090565b828054600181600116156101000203166002900490600052602060002090601f016020900481019282601f1061161857805160ff1916838001178555611646565b82800160010185558215611646579182015b8281111561164557825182559160200191906001019061162a565b5b5090506116539190611657565b5090565b61167991905b8082111561167557600081600090555060010161165d565b5090565b9056fea165627a7a723058201fa072d7fda911142471fc4d2a27cad0f8029663f7db9d42834a3bd9eb9bcdf20029",
  "source": "pragma solidity ^0.5.1;\n\ncontract BC4IOT {\n    \n    mapping (address => bytes) public ids ;\n    \n    mapping (uint8 => address) public systemID ;\n    mapping (uint8 => address) public deviceID ;\n    \n    // System Registration\n    function addSID (uint8 _SID) public \n    {\n        if (bytes(ids[msg.sender]).length != 0)\n        {\n            revert(\"Fog Node Already Registered\");\n        }\n        if (systemID [_SID] != address(0))\n        {\n            revert(\"This SID already Registered\");\n        }\n        else \n        {\n            systemID [_SID] = msg.sender;\n        }\n    }\n    \n    function BC4IOT_bytesConvert (uint8 v1) public pure returns (bytes memory) {\n\t\tbytes memory res = new bytes(1) ;\n\t\tuint i = 0 ;\n\t\tres[i++] = byte(v1) ;\n\t\treturn res ;\n\t}\n\t\n\t// Device Registration\n    function addEID (uint8 _EID, uint8 _SID, uint256 hash, uint256 r, uint256 s) public \n    {\n        \n        if (bytes(ids[msg.sender]).length != 0)\n        {\n            revert(\"This Node Already Exists\");\n        }\n        if (deviceID [_EID] != address(0))\n        {\n            revert(\"This Device already Registered\");\n        }\n        else \n        {\n            if (token_Verify (bytes32 (hash), bytes32 (r), bytes32 (s)) !=  systemID[_SID]) \n            {\n\t\t\t\tif (token_Verify1 (bytes32 (hash), bytes32 (r), bytes32 (s)) !=  systemID[_SID]) {\n\t\t\t\t    revert(\"Verification Failed\") ;\n\t\t\t\t}\n\t\t    }\n\t\t\t\n\t\t\tdeviceID [_EID] = msg.sender;\n            BC4IOT_regEID (_EID,msg.sender);\n        }\n    }\n    function  BC4IOT_regEID (uint8 _EID, address addrs) public\n    {\n        ids[addrs] = BC4IOT_bytesConvert(_EID);\n    }\n    \n    function BC4IOT_bytesConvert1 (uint8 v1, uint8 v2) public pure returns (bytes memory) \n    {\n \t    bytes memory res = new bytes(2) ;\n \t\tuint i = 0 ;\n \t\tres[i++] = byte(v1) ;\n \t\tres[i++] = byte(v2) ;\n \t\treturn res ;\n \t}\n\t\n\t// token_verification\n\tfunction token_Verify (bytes32 hash, bytes32 r, bytes32 s) public pure returns (address)\n    {\n        uint8 v = 27;\n        \n        bytes32 prefixedHash = keccak256(abi.encodePacked(\"\\x19Ethereum Signed Message:\\n32\", hash));\n        \n        if (v != 27 && v != 28) {\n            return (address(0));\n            } else {\n            return ecrecover(prefixedHash, v, r, s);\n        }\n    }\n    \n    function token_Verify1 (bytes32 hash, bytes32 r, bytes32 s) public pure returns (address)\n    {\n        uint8 v = 28;\n        \n        bytes32 prefixedHash = keccak256(abi.encodePacked(\"\\x19Ethereum Signed Message:\\n32\", hash));\n        \n        if (v != 27 && v != 28) {\n            return (address(0));\n            } else {\n            return ecrecover(prefixedHash, v, r, s);\n        }\n    }\n    \n    //Device Authentication\n    function deviceAuth (uint8 EID, uint8 SID, uint256 hash1, uint256 _r, uint256 _s) public \n    {\n        if (bytes(ids[msg.sender]).length == 0)\n        {\n            revert(\"This Node Does Not Exist\");\n        }\n        if (systemID [SID] == address(0))\n        {\n            revert(\"This SID Does Not Exist\");\n        }\n        if (deviceID [EID] == address(0))\n        {\n            revert(\"This Device Does Not Registered\");\n        }\n         else \n        {\n            if (token_Verify (bytes32 (hash1), bytes32 (_r), bytes32 (_s)) !=  systemID[SID]) \n            {\n\t\t\t\tif (token_Verify1 (bytes32 (hash1), bytes32 (_r), bytes32 (_s)) !=  systemID[SID]) {\n\t\t\t\t    revert(\"Verification Failed\") ;\n\t\t\t\t}\n\t\t    }\n            \n            BC4IOT_addMapping (EID,SID,msg.sender);\n        }\n    }\n    \n    function  BC4IOT_addMapping (uint8 EID, uint8 SID, address addrs) public\n    {\n        ids[addrs] = BC4IOT_bytesConvert1(SID,EID);\n    }\n    \n    //test function (Raw Transaction for eth_call)\n    function test() public view returns (uint8) \n\t{\n\t\treturn uint8(ids[msg.sender][0]);\n\t}\n\t\n}\n",
  "sourcePath": "/home/umair/Documents/BC4IOT/SmartContract/BC4IOT/contracts/BC4IOT.sol",
  "compiler": {
    "name": "solc",
    "version": "0.5.8+commit.23d335f2.Emscripten.clang"
  },
  "schemaVersion": "3.0.10",
  "updatedAt": "2019-08-10T16:36:47.321Z",
  "devdoc": {
    "methods": {}
  },
  "userdoc": {
    "methods": {}
  }
}